:020000040800F2
:10100000003C002069410008B1410008594C00082B
:101010005D4C0008614C0008654C000800000000B1
:10102000000000000000000000000000694C000803
:101030006D4C000800000000714C0008754C000861
:10104000B1410008B1410008B1410008B1410008B8
:10105000B1410008B1410008B1410008F54D000858
:1010600000000000794C0008B1410008A14C0008C4
:10107000514D0008B1410008B141000800000000D6
:10108000D14D0008B141000800000000994D000852
:10109000B94D0008A94D0008B1410008B141000850
:1010A000B1410008B1410008B1410008CD4D000830
:1010B000B141000800000000000000000000000036
:0C10C000B141000800000000B141000830
:1010CC0053B94AB9002908BF00281CBF4FF0FF31A3
:1010DC004FF0FF3000F00CB8ADF1080C6DE904CE08
:1010EC0004F0E6FCDDF804E0DDE9022304B070470F
:1010FC00704700BF10B5054C237833B9044B13B1BE
:10110C000448AFF300800123237010BD3808002081
:10111C0000000000E45D000808B5034B1BB1034957
:10112C000348AFF3008008BD000000003C0800201D
:10113C00E45D0008914B924AB3F87CC018882DE905
:10114C00F04FACEB000115888E4C89B24A098D42E8
:10115C0087B02180628080F0E9808B4D2D888D4294
:10116C0040F2E4805968DFF824820F1AD3E90201B7
:10117C00BFB2081A80B2BA422CBF002701278242A4
:10118C002CBF002101210491A160D3E90451A1EBF2
:10119C00050ED3E90651A1EB050AD3E908511FFA54
:1011AC008EFE1FFA8AFA7245A1EB050189B22CBF9B
:1011BC004FF0000E4FF0010E52452CBF4FF0000ABD
:1011CC004FF0010A8A422CBF002101210391616179
:1011DC00D3E90A51491B89B28A42D3E90C51A1EBDC
:1011EC00050189B22CBF002001208A422CBF0025AA
:1011FC0001250195E561D3E90E51491B89B28A425B
:10120C00D3E91051A1EB050189B22CBF00260126B0
:10121C008A422CBF4FF0000B4FF0010B0290A061E3
:10122C00059626626760C4F80CE0C4F810A0C4F8F8
:10123C0024B0D3E912514D1BD3E914618E1B00214C
:10124C00A8F80010D3E91A01ADB2B6B2AA42A1EBCC
:10125C00000189B22CBF00250125B2422CBF00260B
:10126C0001268A422CBF002101214FEA8108A1638B
:10127C00D3E91691A1EB0909D3E918011FFA89F9F1
:10128C00091A89B24A452CBF4FF000094FF00109E9
:10129C008A422CBF0021012148EAC1086163996F81
:1012AC000298C4F83090ACEB010189B28A422CBF91
:1012BC000021012148EA01082164D3E91C31CB1A31
:1012CC009BB29A422CBF00230123E36348EA4308F4
:1012DC00049B2F49A56243406B409A00039B0598E1
:1012EC00E6627B408BEA030342EAC3038AEA00020C
:1012FC0089EA0209019A43EA090382EA0E0986EA9D
:10130C00090943EA49090B789BB1224B1B781BB1A5
:10131C00C8F10F085FFA88F8C8453DD0B4F85430CE
:10132C0000220133A4F8543084F8482007B0BDE8FB
:10133C00F08F184B1A78002AE8D1019303F076FC51
:10134C00019B134948B194F844200132D2B2642A6B
:10135C0084F8442084BF01221A70D4E901720492EB
:10136C0062690392A2690292E2690192226AE66AB8
:10137C000592D4E903EAD4E909B5C7E7340700209C
:10138C0020070020C8030020C0030020B006002066
:10139C007C060020C1060020B4F846308448013396
:1013AC00A4F84630236B0022012B028004BF814A33
:1013BC001370049B039A5B0243EA8723334343EA8B
:1013CC000E2343EACA1343EA8213029A43EA4213F6
:1013DC00019A43EA0213059A43EAC20394F848209F
:1013EC0043EA8B0343EA4505E2B92F2D2EDD94F831
:1013FC004D30002B50D1704E3578002D96D06F4B60
:10140C001B78002B92D10B78002B8FD094F8503096
:10141C00AB4249D0052D84F8505050D9012384F8A3
:10142C004E3083E7012A31D0022A29D0032A7FF4D7
:10143C007DAF252D7FF47AAF6149B4F84A2094F83A
:10144C004C008854002384F848306FE76B1E2E2B19
:10145C0005D85C4B584E1A80EDB23570CFE7002D95
:10146C00C9D194F84F305749534A012B4FF0000320
:10147C0008BF84F84D500B80137084F84E3055E73C
:10148C00032384F84C5084F848304FE70223A4F827
:10149C004A5084F8483049E74A49474B84F84E2073
:1014AC00ADB20D801A7041E7052D08D994F84E3075
:1014BC000133DBB2052B84F84E307FF637AF0023B7
:1014CC00013D84F84E30232D16D8DFE805F0126C60
:1014DC006864605C554E4A46153E322B1515151541
:1014EC0015241F1515151515151515151515151587
:1014FC00151B354B01221A70344A317811700023B8
:10150C00337013E7012384F84830F5E72C4A304B4D
:10151C00527C1A70F0E72A4B2D4A5B7CC3F1010315
:10152C001370E9E70022012384F8512084F853302A
:10153C00E2E794F84F300122934284F8512084F86A
:10154C005220D9D184F84D30D6E700F0EBFB1C4B80
:10155C001D4A5B7C01331370CEE7194B01229A7440
:10156C00CAE7174B00229A74C6E71549184B01209D
:10157C00002248741A70BFE71149154B0020012254
:10158C0048741A70B8E7134B01221A70B4E70E4B6B
:10159C0005221A70B0E70C4B04221A70ACE70A4B08
:1015AC0003221A70A8E7084B02221A70A4E700BFA6
:1015BC00B0060020AA060020DA06002064060020EF
:1015CC00000500206606002082060020DB060020B5
:1015DC0054000020C206002030B5834D95F85130E0
:1015EC00002B36D195F85230002B3DD095F8533066
:1015FC00002285F85220002B00F0C08000237B4C89
:10160C0085F853304EF6F173012285F85E20784A46
:10161C00784892F800E06B6605EB8E03802200EBB5
:10162C008E001A671146AC66043013224FF0010C81
:10163C000CFA02F32340D34083EAD111013AC901D9
:10164C00531C40F8041FF3D105EB8E050023EB6609
:10165C0030BD95F85E40002C49D095F852300022F0
:10166C0085F85E20002BC1D195F85330002BC5D1E5
:10167C00614B1B78002B00F08580C30B024640F0B9
:10168C0083808313012B00F0A4804313012B00F003
:10169C00A2800313012B00F09A80C312012B00F0DF
:1016AC00A0808312012B00F09A804312012B00F0D2
:1016BC00948000232B66030A83EA10134340DB4318
:1016CC0003F00F0343EA021319134C4A03F00F0003
:1016DC00515C145C44EAC134C3F30321515C44EA09
:1016EC008124C3F30311525C44EA42148FE7B5F82A
:1016FC005C30B5F85A20B5F8581001339BB2013262
:10170C00013192B289B2272BA5F85C30A5F85A208A
:10171C00A5F8581041D8C72A4ED9394A394B1288E6
:10172C00A5F85A40A3FB0232C2F3C70242F480620E
:10173C0095F85230002B7FF459AF95F85330002BAD
:10174C007FF45CAF110A81EA12115140C9432B4856
:10175C0001F00F01C2F3132441EA021310F804C084
:10176C00445CC2F3031102F00F02415C825C44EA58
:10177C00CC3444EA812444EA421445E7224C4EF22C
:10178C00010341E74FF6FF720F21083942FA01F3CA
:10179C0043EA4122296690B28DE71C4B1949B3F9F3
:1017AC000030A5F85C4081FB0321DA17C2EB211253
:1017BC00D2B242F4C062BBE7C7297FF613AF144B19
:1017CC00A5F858401A88D2B242F40072B0E70C2146
:1017DC00DBE70E21D9E70D21D7E70921D5E70A214F
:1017EC00D3E70B21D1E700BFC8030020FB3D070066
:1017FC00C30300203404002064060020FC5D0008B4
:10180C00A60600201F85EB513B670700AC060020A5
:10181C00C806002030B5039C05468D4209DC13E058
:10182C00A34213D0B1EB6C0F0DD0754510DC044600
:10183C00724601EB020C181995424FEA6C0E4FEAF6
:10184C006000EDDB204630BD9542FBDA184630BD1A
:10185C000EF101010346E0E70346401A48BFC81ADF
:10186C00704700BF04494A6A80B292B24B6A9B1A15
:10187C009BB28342FAD370470048014000F1FF3C11
:10188C0058B106494A6A92B24B6A9B1A9BB2B3F59D
:10189C007A7FF9D3BCF1010CF4D2704700480140B7
:1018AC00002965D00139421E50FA81F1002027E051
:1018BC00C3B240B2002831DB5800C3B240B200289A
:1018CC0033DB5800C3B240B2002835DB5800C3B23A
:1018DC0040B2002837DB5800C3B240B2002839DBD5
:1018EC005800C3B240B200283BDB5B00D8B25BB2FD
:1018FC004000002BB8BF80F007008A42C0B236D03F
:10190C0012F8013F584010F0800F4FEA4000CFD042
:10191C0080F0070358B20028DBB2CDDA5B0083F00D
:10192C00070358B20028DBB2CBDA5B0083F0070365
:10193C0058B20028DBB2C9DA5B0083F0070358B257
:10194C000028DBB2C7DA5B0083F0070358B200282B
:10195C00DBB2C5DA5B0083F0070358B20028DBB2B8
:10196C00C3DA580080F0070043B2C0B2C0E770473A
:10197C0008467047026803FB03F303EB430C22EAAF
:10198C000C0201FB03F313430360704703FB03F3E7
:10199C0010B4046803FB01F103FB02F203EB4303F5
:1019AC0024EA03040C430460C16810BC21EA03035D
:1019BC001343C360704700BF70B50B4C0B4E04F162
:1019CC003005B64620686168A268E368F446ACE866
:1019DC000F001034AC42E646F4D104483021FFF736
:1019EC005FFF86F8300070BD00050020CC0400209D
:1019FC00BFF34F8F0549064BCA6802F4E0621343EC
:101A0C00CB60BFF34F8F00BFFDE700BF00ED00E0E0
:101A1C000400FA0570B5BA4CBA4D82B02968C022E0
:101A2C00204603F093FA6378022B40F21581A279D9
:101A3C00511EC9B2E37D2A2B55D8181F052852D93F
:101A4C00032B55D90A3BDBB2202B56D9237EA3F1AD
:101A5C000800C0B2882858D803EB8303AA48AB4EC1
:101A6C0003EB83039B00A0FB03033129A8484FEA37
:101A7C009303B0FBF3F3F362AB804DD802EB82021D
:101A8C00520002F5C87189B2637E2A81A3F132003B
:101A9C00642898BFD218A37EA98103EB83034FEA75
:101AAC00C30303F1140398BF92B20220EB816A8145
:101ABC0002F062F96378002B38D1E8894FF4FA739D
:101ACC00009340F6B8324FF47A734FF49671FFF7E7
:101ADC00A1FEA37CA5F8500013B34FF47A73C4F89D
:101AEC00C83002B070BD1020032B84F8C000A9D8F8
:101AFC00DB00DBB203F10A00E07584F8C030237E12
:101B0C00A3F10800C0B28828A6D9804841F28733D7
:101B1C003129EB80C362B1D94FF4C8710022B3E70D
:101B2C004FF4FA63C4F8C83002B070BDA07F0B2824
:101B3C0088BF052002F020F994F8213094F8202079
:101B4C0094F8221094F82300A87503F26B335B0011
:101B5C006B8294F82830053B142B84BF052384F842
:101B6C00283094F8293002F27712013B5200092BED
:101B7C002A8294F8252088BF0A2302F1FA0288BF32
:101B8C0084F8293094F82A302A83002284F82720FC
:101B9C005A1E01F25E51082AA98269D90A2384F8D7
:101BAC002A3094F82B30617AE27AA07AA862463B0C
:101BBC00462B84BFFF2384F82B3094F82C30013B48
:101BCC00622B9CBF012384F8C13094F82D30013B6B
:101BDC00092B84BF052384F82D3094F82E3049004E
:101BEC005200092B6962EA6206D8042B0CD8DFE894
:101BFC0003F003817D0B7400464A0023012184F815
:101C0C00C23084F8C33011706379092B49D809228A
:101C1C0084F8C42085F8483085F8493085F84A3076
:101C2C00E8893D4AE17EB0F5967F3CBF002385F8FC
:101C3C004B302023B3FBF1F1A2FB0032324B5209A3
:101C4C00B2FBF1F2A5F84C20A3FB0023DB08B3FB9D
:101C5C00F1F3A5F84E3031E7304AC4F805200021E5
:101C6C004FF06413C4F80930C4F80D100122E1E6FA
:101C7C00C3EB4312C3EB82035B006A892349383BF5
:101C8C00DBB21A446A812A89AB761A442A81AA8B60
:101C9C001A44AA83AA891A44AA814A6C13434B6436
:101CAC007FE7002284F8C42095F84810A2F1333263
:101CBC00A2FB0323DA08B1EBD30F88BF85F84820C9
:101CCC0095F849309A4238BF85F8492095F84A3042
:101CDC009A4238BF85F84A20A2E711490D4A0123E0
:101CEC000B700021117084F8C2308DE7012384F849
:101CFC00C33089E7074A012384F8C230137083E7A5
:101D0C000005002000000020ABAAAAAA002C01406C
:101D1C00F0821E00150400201F85EB51A001000A63
:101D2C0017040020024B03481A68C02103F0B2B814
:101D3C00000000200005002038B5294C94F85430E0
:101D4C00012B3DD094F85530264D5A1E12F0FF024F
:101D5C0024D084F8552003F0010384F8523072B675
:101D6C0095F83F313BB362B603F06CF8D5F8C83048
:101D7C00D5F8402103F5FA7393423CBF012384F854
:101D8C00563094F85530002285F83C2105EB43037E
:101D9C0085F84421A26DA3F8462138BD0123062203
:101DAC0084F8552085F83E3184F8523072B695F897
:101DBC003F31002BD7D194F8550003F0A3FBD2E7A9
:101DCC0094F85520074D0132D2B2062A99BF84F8F7
:101DDC00552002F0010384F8553085F83E31BCE7FC
:101DEC000000002000050020204AD36810B523F025
:101DFC0001031F4CD360FFF79FFFB4F854211D491A
:101E0C00B4F856018B6D80B210FA82F203EB5203D8
:101E1C0094F82F205B088B65EAB98A6D94F8C03072
:101E2C0002FB03F3C3F38F138A6D91F85610A4F8D9
:101E3C005A31C3EB520292B2A4F85C2199B1D4F896
:101E4C00602142F20F739A4204D8D4F86031013306
:101E5C00C4F8603110BD8A6D94F8583102FB03F35D
:101E6C00C3F38F13E0E702F0E5FFE8E7004401401D
:101E7C00000500200000002038B5184D95F85C30A6
:101E8C0073B1002403E095F85C30A34208DD02F046
:101E9C00BDFF95F85230984204F10104F3D138BDDE
:101EAC0072B602F0BBFF0E4A0E4CB2F856110E4B36
:101EBC0089B2A2F85411606A002180B2A2F85601CE
:101ECC0061625962B2F85C2192B20132DA62196134
:101EDC00DA6842F00102DA6062B638BD0000002018
:101EEC0000050020001000400044014070B5B44CC7
:101EFC00A37C82B0002B5CD094F8C230002B00F095
:101F0C00BD80B04D94F82630002B00F0B081B4F8B1
:101F1C0066319BB2B3F5836F17D3627C95F854305E
:101F2C00934200F0B48394F83F3173B9B4F866214E
:101F3C0095F85D3092B2C3EB42036FF4006000225F
:101F4C00034484F86A21A4F86831B4F866319BB272
:101F5C00B3F5836F1CD2B4F866319BB22F2B17D913
:101F6C00637C95F85410C3F10102914200F0028495
:101F7C0094F83F3163B9B4F8662195F85D3092B2AC
:101F8C00C3EB4203313B002284F86A21A4F8683188
:101F9C00B4F866319BB22F2B10D894F83F21002354
:101FAC00A4F8683152B1012284F83F3184F86A21D7
:101FBC0004E0B4F86631834DA4F8683194F87021CC
:101FCC0095F85E309A4203D9A37D002B40F0EC804B
:101FDC00E67CAEB3B4F868011D2800F2D080002373
:101FEC00A4F8723194F8283003EB8303B0EB830F21
:101FFC004FEA830180F2CF8094F86E31002B40F0D1
:10200C00B78094F87C31002B00F0B280E27CB4F8FD
:10201C00720150232E2113FB02138342C0F26881FC
:10202C0094F88231002B00F0E781013B042B00F285
:10203C00E081DFE813F0DC01640361035E03DC0183
:10204C0094F87431002B00F0958094F87531002BC6
:10205C0040F0A281D4F878215B49D31781FB02129E
:10206C00C3EB22339BB2B3F5006FA4F87231C0F00E
:10207C00068240F2FF73A4F87231BDE794F8262073
:10208C00504D002A00F0A280A87DB4F866214000D3
:10209C0092B200F57A718A421ADD667C95F854206A
:1020AC00B24200F0D18294F83F318BB9B4F866019A
:1020BC0040F2FF720023009284F86A3180B22F2321
:1020CC004FF4FA62FFF7A6FBAB7DA4F86801580049
:1020DC00B4F86631C0F57A729BB293421CDA637C19
:1020EC0095F85460C3F101018E4200F0BF8294F860
:1020FC003F318BB9B4F866012F230021009380B2D5
:10210C0040F2FF7384F86A11FFF784FBAB7DA4F8EF
:10211C0068015800C0F57A72B4F866319BB29342EC
:10212C0011DBB4F8663100F57A709BB283420ADC9D
:10213C0094F83F210023A4F8683122B1012284F8DD
:10214C003F3184F86A2194F8C230002B3FF436AF4B
:10215C00D8E6E17C2E22502313FB0123B4F8722124
:10216C009342BFF65DAF94F83F61002E00F0B6814C
:10217C0002B070BDB4F86831A4F872313CE71E2887
:10218C003FF430AF94F8282002EB82029200904288
:10219C001146C0F2208140F2FF720092A023FFF79B
:1021AC0039FBA4F8720127E703F06EF902F036FE52
:1021BC0000226623A4F8722184F870311CE700BF5A
:1021CC000005002000000020AD8BDB68AB7DB4F86F
:1021DC0066215B0092B203F57A718A4214DD637C4E
:1021EC0095F854209A4200F01282B4F8660140F23D
:1021FC00FF73009380B22F234FF4FA62FFF70AFBB0
:10220C00AB7DA4F868015B00B4F86611C3F57A7273
:10221C0089B2914217DA637C95F85400C3F101013D
:10222C00884200F04B82B4F866012F23009380B2F1
:10223C0040F2FF730021FFF7EDFAAB7DA4F86801C3
:10224C005B00C3F57A72B4F8661189B29142FFF65D
:10225C007AAFB4F8662103F57A7392B29A423FF7DB
:10226C0072AF0023A4F8683184F86F316BE7B4F8CF
:10227C0066319BB2B3F5836F11D3637C95F8542010
:10228C009A4200F0A981B4F8662195F85D3092B2BB
:10229C00C3EB42036FF400610B44A4F86831B4F84B
:1022AC0066319BB2B3F5836F16D2B4F866319BB22C
:1022BC002F2B11D9637C95F85410C3F10102914274
:1022CC0000F04182B4F8662195F85D3092B2C3EB10
:1022DC004203313BA4F86831B4F866319BB22F2B22
:1022EC003FF66CAE0023A4F8683184F86F3165E6D4
:1022FC0094F86431002B00F00081002A00F0F1808A
:10230C002B894FF4FA620092283340F2FF72892134
:10231C00FFF780FAA4F8800194F82630002B7FF4A4
:10232C0018AFE07CB4F8721184F83F3150222E23A0
:10233C0012FB003399427FF773AE2E2907D9607FC9
:10234C00D4F860211E230341934200F22281B4F899
:10235C008031B5F892209A423CBFA4F880211346F4
:10236C0094F8C12032B1B5F994209342C4BF93B212
:10237C00A4F88031D4F88C21002A7FF7F9AE2F29EC
:10238C007FF6F6AECB48D11780FB0202C1EB2232AE
:10239C001344A4F88031EBE6D5E91832B4F868019F
:1023AC0000922F2140F2FF72FFF734FAB4F8682143
:1023BC00C14B93FBF0F3E07E2E2A4FEA500093FBC7
:1023CC00F0F3A4F876313FF645AEA4F87261AE6630
:1023DC00C4F8786110E6A02300931E212F23FFF789
:1023EC0019FA0346A4F87231B4F86801FAE501F061
:1023FC001BFE002384F88231237D002B46D194F8F8
:10240C006421A4F88031002A00F0D28094F82630A0
:10241C00002B3FF4A8AE94F83F31002B5ED094F81B
:10242C00C230002B00F0C181B4F866319BB2B3F519
:10243C00836F0ED2B4F866319BB22F2B09D9B4F846
:10244C00662195F85D3092B2C3EB4203313BA4F8A0
:10245C008431B4F866319BB2B3F5836F80F0CA81D6
:10246C00B4F8843140F2CE72934240F2B08103F062
:10247C00E1F994F83F61002E7FF47AAE2EE02F2B19
:10248C003FF6BAAD3023A4F87231B5E594F8643157
:10249C00002B45D1267FC4F86031012285F85620E7
:1024AC0084F83D31002E39D0E17C002939D1012E40
:1024BC0037D194F8293003EB830303EB8303DB0060
:1024CC009BB240F2CE729342A4F8843140F2A081C8
:1024DC0003F0B0F9E17C94F83F6124E0B4F8721198
:1024EC002BE74FF4FA6200922B8940F2FF722F21F6
:1024FC00FFF790F9A4F880010EE702F0C5FF95F8FC
:10250C005630002B00F018816B89E27CB4F8720114
:10251C00A4F87E31012184F86411EEE602F0B4FFD8
:10252C00E17C94F83F6195F85530013BC3EB031205
:10253C00B5F8903003EB82031AB2B2F5B47F9BB2BC
:10254C00A6BFA3F5B4739BB2A4F8862103F177025E
:10255C0012B2A8BFA4F88631B2F5B47FA8BFA3F11C
:10256C00F102A4F8882103F1EF0212B2B2F5B47FA4
:10257C00A6BF793BA4F88A31A4F88A21002301294B
:10258C0008BF84F86E11A4F88031002E7FF4F0ADF2
:10259C00A4E7B4F880316A8993423CBFA4F8802147
:1025AC001346AA899A423CBFA4F880211346D0E670
:1025BC00237FC4F86021012185F85610002B40F0D0
:1025CC00EA8094F83F31002B00F0048194F8263017
:1025DC00002B7FF424AFCBE5AA6DB5F850109142D7
:1025EC0080F0A280B4F86C2192B2C72A00F29C80D1
:1025FC00C3F101030026012285F85430C4F8606150
:10260C0085F8562002F00AFC84F86F613BE6AA6D4F
:10261C00B5F8500090427ED2B4F86C2192B2C72A21
:10262C0079D8C3F101030026012285F85430C4F88F
:10263C00606185F8562002F0F1FBA97D84F86F618A
:10264C00490001F57A71D0E594F86A61A4F8683113
:10265C004FF0010C84F83FC1002E3FF439ADACEBC8
:10266C00020285F8542084F83F311FE594F86A6122
:10267C0000214FF0010CA4F8681184F83FC1002E22
:10268C003FF44AAD85F8543084F83F1132E501210E
:10269C0084F83F1194F86A110022A4F868210029EB
:1026AC003FF453ACC3F1010385F8543084F83F2157
:1026BC003CE400BFAD8BDB6800879303A96DB5F8D4
:1026CC00500088421ED2B4F86C1189B2C72919D8AF
:1026DC000122002685F85620C4F8606185F8543034
:1026EC0002F09CFBAA7D84F86F615200C2F57A72ED
:1026FC0099E501F02BFC7CE601F0F6FC79E601F0A3
:10270C00C3FC76E694F86E110029E1D14FF47A738C
:10271C00A4F8663187E594F86E21002A81D14FF434
:10272C007A73A4F8663160E594F86E21002A7FF480
:10273C005FAFA4F86621A6E594F86431002B4CD069
:10274C0002F078FBE0E6AA6DB5F85010914225D264
:10275C00B4F86C2192B2C72A20D800260122C4F802
:10276C00606185F8562085F8543002F057FB84F8E8
:10277C006F61A7E5012184F83F1194F86A110022DA
:10278C00A4F8682100293FF403AC85F8543084F890
:10279C003F21FFF7F0BB03F04DF837E694F86E21BC
:1027AC00002ADAD1A4F866218CE5B4F866114FF44E
:1027BC007A7089B2FFF750F894F8C22000F57A735A
:1027CC009BB2A4F88431002A3FF44CAE2CE602F004
:1027DC0023FEC8E402F058FE18E6FFF7ADFA0F4BE3
:1027EC0042F2107141F28832A9655A62012384F8D1
:1027FC006431A5E7B4F8662195F85D3092B2C3EB6D
:10280C0042036FF4006213449BB2A4F8843129E6AE
:10281C0002F002FEE17C84F83F6184E60010004087
:10282C0010B50D4C94F89031012B0FD094F89031D9
:10283C00022B03D0BDE81040FFF758BBB4F894014D
:10284C00FEF7CAFE002384F8903110BDFEF772FC2F
:10285C00002384F89031E9E700050020F8B54F4ECD
:10286C004F4F96F85410002977D1B7F886310133C1
:10287C001AB2B7F888310133B2F5B47F1BB2B2BFCC
:10288C00A7F88621A7F886110A46B3F5B47FA8BF2E
:10289C000023A7F88831B7F88A3101331BB2B3F59E
:1028AC00B47F77DAA7F88A3106EB4202B6F86813E0
:1028BC00B2F99830B0883B4D3B4C0B4400FB03F312
:1028CC0085FB0312D81797F82D30C0EBE21003FBF1
:1028DC0000F0C31784FB0020C3EBA00080B202F011
:1028EC00FDFCB7F98831B6F8680306EB4303B3F97E
:1028FC00982097F82D300244B08800FB02F285FB3B
:10290C000201D017C0EBE11003FB00F084FB0023A5
:10291C00C017C0EBA30080B202F0E6FCB7F98A3115
:10292C00B6F8680397F82D2006EB4303B3F99830FB
:10293C000344B08800FB03F385FB0315D817C0EBE9
:10294C00E51002FB00F084FB0034C017C0EBA400C0
:10295C0080B2BDE8F84002F0CDBCB7F88621B7F8DC
:10296C008831013A12B2013B1BB2002AB8BF40F2C7
:10297C006712002BB8BF40F26713A7F88831B7F87D
:10298C008A31A7F88621013B1BB2002BB8BF40F25D
:10299C00671387E70023A7F88A3185E7000000203A
:1029AC0000050020D34D621067666666294938B56C
:1029BC004B6A294C294D9BB20022A4F856314A622D
:1029CC00B4F85631AA6D02EB420212FA83F39B085B
:1029DC00AB65AA6D94F8C03002FB03F3AA6DC3F388
:1029EC008F13C3EB520292B2A4F85A31A4F85C21B3
:1029FC0003E0D4F86031042B05D94A6AB4F85C3191
:102A0C009BB29A42F5D3FFF797F9002284F83C2148
:102A1C00D4F86031617F84F83D210133C4F8603112
:102A2C0094F826300B4305D1AA6DD4F8C8309A42DD
:102A3C0008D338BDD4F86031132BFAD9AB6DB3F58C
:102A4C00FA6FF6D8002385F85630BDE8384002F00E
:102A5C00F1B900BF0010004000050020000000206C
:102A6C00F8B5984CB4F89821B4F89A31B4F88001C0
:102A7C00A4F86C0101320133B4F89C1194F8A00154
:102A8C00A4F89821A4F89A31B4F89E2194F87C31DA
:102A9C00013101320343A4F89C11A4F89E2141D1C9
:102AAC0094F8A121002A3DD0B4F86851002D40F0D3
:102ABC00ED81B4F8A23101339BB244F620618B4214
:102ACC00A4F8A2312ED9B4F8A4311E2B40F25982AD
:102ADC0094F8243001218B4284F87C1140F056820A
:102AEC00B4F8A61178484B08A0FB0323DB09B1F519
:102AFC00B97F84F8A0310DD3744F4AF6AA2601F0A1
:102B0C005DFA6420FEF7BAFE94F8A0313E60013500
:102B1C00AB42F4DC94F8C33094F8C220134301D1D7
:102B2C0084F82630E17F81B1694BB4F8A82193F881
:102B3C006A33013B01320B4492B203EB8303B2EBD9
:102B4C00830FA4F8A82100F3818094F86E61002E05
:102B5C0053D15F4D95F8563023B194F86431002B66
:102B6C0040F04F81B4F89E31142B19D994F8C13030
:102B7C000121002284F8AB11A4F89E21002B00F057
:102B8C00AD8094F86431002B40F09281637F3BB9A7
:102B9C0094F8743123B194F86431002B40F0EF8039
:102BAC0094F8C430B4F89C219A422CD8B4F87E31F5
:102BBC00A4F86C3194F87C311BB194F86431002B7F
:102BCC005DD194F83F31002B47D0EA88B4F88431BA
:102BDC00404902FB03F381FB0301DB17A3EBE11379
:102BEC0013449BB2A4F8AE313B49B4F86C01A4F881
:102BFC007E01C1E90D33CA62CB63B4F8B031013345
:102C0C00A4F8B031F8BDD4F860310022952BA4F8AB
:102C1C009C21B4F87E2145D895F84830DBB285F874
:102C2C009833B4F86C1189B2891A994203DDD11822
:102C3C0089B2A4F86C11B4F86C1189B2511A8B4298
:102C4C00B8DAD31A9BB2A4F86C31B3E70122002393
:102C5C0084F8AA21A4F8A83177E7207F022800F095
:102C6C00FE80B4F86C31EA881A499BB202FB03F37C
:102C7C00A1FB0313C3F3CF13A4F8AE31B4E7B4F83C
:102C8C0072312F2B9DD9B4F86C31EA8811499BB263
:102C9C0002FB03F3A1FB0313DB0901339BB2A4F882
:102CAC00AE31A1E7952AB7D9D4F84031B3F5FA7F04
:102CBC008CBF95F8493095F84A30DBB285F89833DB
:102CCC00AFE700BF00050020B9D31FB100300040B2
:102CDC0000000020D34D6210002C0140637F002BBC
:102CEC003FF456AF94F86431002B3FF459AFAB6D01
:102CFC00B5F86E23D5F88013D5F878039A1AD5F861
:102D0C009033C5F8702300FB02119942C5F880136B
:102D1C00C4BF1946C5F880335B428B42C4BF194609
:102D2C00C5F88033D5F88833D5F87C03C5F88823EB
:102D3C00D31A00FB03F3D5F87403C5F8843300FBF6
:102D4C000233D5F894230B449342C5F88C33C4BF9B
:102D5C001346C5F88C2352429A42D4F88C11C4BF46
:102D6C00C5F88C2313468C4A0B44934240F3FD80E8
:102D7C00C4F88C2194F87431002B3FF411AFD4F8C3
:102D8C009431B4F87621A96F286F9A1AD5F8883047
:102D9C00AA6600FB02119942A967C4BF1946AB672A
:102DAC005B428B42C4BF1946AB67D5F88030686F65
:102DBC00C5F88020D31A00FB03F3E86EEB6700FB29
:102DCC000233D5F88C200B449342C5F88430C4BF31
:102DDC001346C5F8842052429A42D4F87811C4BFE5
:102DEC00C5F8842013466D4A0B44934240F3C380CC
:102DFC00C4F87821D4F86031632B9CBF0023AB67F7
:102E0C00CEE602F00BF802F001F895F85230002BE8
:102E1C003FD1002840F09A8094F83D3195F853202A
:102E2C000133DBB29A4284F83D3138BF84F83C015F
:102E3C0094F84431002B7FF495AE95F85230002B6A
:102E4C0000F08B8094F83C3195F86B239A42BFF4D8
:102E5C0089AE012384F84431FFF7A8FD82E694F88B
:102E6C007C31002B3FF4FDAE02F04CFBEA88237B57
:102E7C004B4902FB03F3A1FB0313DB0903EB8303B5
:102E8C005B0032339BB2A4F8AE31ADE6A4F8A231AC
:102E9C0048E600285AD094F83D3195F85320013378
:102EAC00DBB29A4284F83D31C2D284F83C61BFE770
:102EBC0094F82C20B4F9AC31296BA86A02EB82028D
:102ECC0002EB8202A3EBC2022B6C2A6200FB021102
:102EDC0099422963C4BF19462B635B428B42C4BF22
:102EEC0019462B63AB6BE86AAA63D31A00FB03F396
:102EFC00686A6B6300FB02336A6C0B449342EB63AE
:102F0C00C4BF1346EA6352429A422649C4BFEA63DD
:102F1C001346DA1781FB0313C2EB2332B5F8943056
:102F2C0029899B1A1BB28B42A5F89430BCBF0BB2FB
:102F3C00A5F89430B3F5FA6F03DD4FF4FA63A5F8F6
:102F4C009430637F002B7FF4D2AE13E794F83C31BE
:102F5C000133DBB284F83C316AE794F83C3195F8E4
:102F6C006C239A42BFF4FEAD73E7002B11DC0023F7
:102F7C00C4F88C31FEE6002BB8BF0023C4F87831BE
:102F8C0038E784F8A151A4F8A251CBE501F016F86A
:102F9C00C0E5C4F88C31EDE660E31600F05838015A
:102FAC00D34D6210AD8BDB682DE9F04F83B002F08E
:102FBC0001F84FF47063C04AD3F8E010914205D188
:102FCC00BE4AD3F8E410914200F0F983BC4DBD4CDD
:102FDC0002F0CCF802F0A4F9FEF71CFDE378022B0A
:102FEC0003D12379142B00F0228441F202410323F4
:102FFC00A4F803102A68B3486370C02101F04AFF9B
:10300C00637C227DA988E980013B18BF012385F8E8
:10301C00543002B9E27494F82630A3B12989B5F87A
:10302C009A236B89323101204FF47A76298132321E
:10303C0032330021AE8385F84B00C4F81200A17521
:10304C00A5F89A236B8100F03DFF0023A4F8A4316E
:10305C0001F0EEFF9C4B4AF6AA221A6001F062FDC9
:10306C0094F8753113B1012384F8743101F0E6FD45
:10307C00954FDFF85892DFF85882DFF858A24AF6DD
:10308C00AA26B4F84A11B4F84831B4F84C21B4F873
:10309C004E010B441344B4F85011B4F852210344BC
:1030AC000B441344D4F8602104335B10042AC4F895
:1030BC00943100F21981A37C002B00F0C881042309
:1030CC0085F86B3385F86C33637D3E60012B00F023
:1030DC001581022B00F01F81B4F8B03142F210724E
:1030EC0093420BD994F87C2102F0FF0B002A40F09C
:1030FC004D8349F64042934200F26E83B4F8982116
:10310C0044F620639A4210D9B4F9AC31D4F8B42106
:10311C001B0489FB03011944DB17C3EB2123134464
:10312C000022C4F8B431A4F89821D4F86031B3F576
:10313C007A7F40F216810022B4F8683184F870214D
:10314C00D4F86021642A02D9C72B40F28681E27C34
:10315C0012B19F2B40F2148194F8B821002A00F090
:10316C004B81B3F5C87FC0F01181D4F8942194F849
:10317C003E1188FB0203A3EBE273C4F8403121B18A
:10318C00D4F860310A2B00F2198294F8C131002B6B
:10319C0000F08780AB6D322B40F283804E4B1022B7
:1031AC00002183F80B1383F8152383F80C2394F870
:1031BC00AA3103F0FF0B23B994F8C231002B40F075
:1031CC00E88194F8ABB1BBF1010F00F04A8194F89F
:1031DC006E314FF0000B84F8D3B1002B40F0DA8045
:1031EC0094F864313D4AD4F894113D4892FBF1F2C5
:1031FC0013FB02F39BB2A0FB032095F84B20A4F821
:10320C00D431C008A4F8D601002A40F0CA814FF48A
:10321C00FA63A5F89230B4F8C83194F82B101BB2AD
:10322C008B4200F3A681D4F86031632B00F202814B
:10323C00AB6DB3F5FA7F40F2FD800C2385F85C3062
:10324C00AB6D312B9CBF022385F85C3094F82F308A
:10325C00002B40F08081234A526A4AF6C8739A4286
:10326C007FF60FAF94F864B1BBF1010F7FF409AF97
:10327C0094F87031013384F8703101F0CFFDB4F85B
:10328C00723185F856B02F2B05D8002384F86431A1
:10329C0041F28833AB650023C4F86031FFF786FB3D
:1032AC00EFE60D4B0022102183F80B1383F8152346
:1032BC0083F80C237BE700BFDAE32559D963B84EBA
:1032CC00000000200005002000300040B7600BB665
:1032DC00565555551F85EB5100E100E0C0270900FC
:1032EC00CDCCCCCC00100040032385F86B3385F893
:1032FC006C33637D3E60012B7FF4EBAEAB88A86D25
:10330C000093C8225B086021FEF784FA637DE88095
:10331C00022B7FF4E1AED4F84031F92B0AD8D4F863
:10332C004031642B06D9D4F8403103EB430203EB54
:10333C008203EB80D4F84031632B05D8D4F84031AC
:10334C0013B140F21453EB80D4F84031F92B04D86C
:10335C00D4F84031002B7FF4BFAE40F6B243EB8083
:10336C00BAE6B4F86831002B7FF4EAAED4F86021E9
:10337C0084F87031642A70D8E27C002A3FF4ECAEF9
:10338C0094F8B821002184F87011AAB3002384F8B2
:10339C007031EAE6B4F87231302B34D994F87C21D0
:1033AC008AB3313B572B00F2A68194F8D831002B0D
:1033BC0040F02C82FFF752FA94F81BE0B4F872013B
:1033CC007822302141F6583340F22A3CB3FBFEF30D
:1033DC00BCFBFEFCCDF800C0FEF71CFAA5F8A00360
:1033EC0080B2FEF73FFAB5F8A0234FF41673B3FB87
:1033FC00F2F3A4F8D43144E6952B94BF64230A234A
:10340C0085F85E30B1E694F81CB001239B4584F836
:10341C00D83100F01081BBF1020F00F02881D44BA1
:10342C000022C3E90D22DA6302F02EF80023A4F87F
:10343C00D43126E60C230093D4F8400103234FF437
:10344C00FA726421FEF7E6F985F85C00F8E60623CB
:10345C0085F86B3385F86C3336E6002284F87021DE
:10346C0075E601F0A9FA5946C24800F0BFFFB4F85E
:10347C00C40101F041FBB4F8CA21BF4BA4F8C6014A
:10348C0040F6E44101FB02F2A3FB0213D21A03EB58
:10349C005203B5F89C23A4F8C801DB0A94F8D000B9
:1034AC00B4F838E102FB03F3B4F8A621AAFB03132A
:1034BC0004EB400CC2EBC20202EB53120130D4F805
:1034CC00CC30BCF8D4B0ACF8D4E0C0B231287344E2
:1034DC0088BF0020A3EB0B0384F8D000C4F8CC30D9
:1034EC00AAFB03031B0940F6E440A4F83A319BB253
:1034FC00C4F8CC3100FB03F3A048A0FB030343F357
:10350C000F23002BB8BF0023A4F8AC3194F824305F
:10351C00D110012BC2F3CF02A4F8A62100F0BB807E
:10352C00022B08D1237A934240F2BE80B4F8D031FA
:10353C000133A4F8D03194F86E319148B4F8D0111D
:10354C0042F2107200FB0322914200F3B58000227C
:10355C0084F8AB213DE6B4F86C011723009380B2DC
:10356C000D234FF4FA626421FEF754F984F85801E4
:10357C0071E6B5F89E33B4F8C8010122009200B28E
:10358C0001F10A025B080A39FEF744F9A5F892002A
:10359C0049E6FEF711FA312002F0E0F984F8C2B1E5
:1035AC000FE6B5F89E330093AB8BB5F84E20B5F80B
:1035BC004C10FEF72FF9A5F892002CE6D4F8401128
:1035CC00D4F8BC01FEF748F9D4F84031B0EB530FF6
:1035DC0024D9D4F84031B3F5FA6F1FD294F8C03126
:1035EC00013384F8C031A37C0022C4F86021EBB90C
:1035FC00B4F872312F2B19D9002384F86431D4F824
:10360C006031642B84BF41F28833C4F840316B893C
:10361C0001225B0885F85620A4F87E31D4F840319D
:10362C00C4F8BC31002284F83E21AEE5AB6DB3F595
:10363C007A7FE4D9E0E794F82930EA88514903EB22
:10364C00830303EB8303DB009BB2A4F8843102FBFE
:10365C0003F381FB0301DB17A3EBE11313449BB2D0
:10366C00632BA4F8AE313BD802F0E4F8DEE6584602
:10367C0001F048FFEA88237B02FB03F3414AA2FBDB
:10368C000323DB0903EB8303394A5B003233C2E9C2
:10369C000D33D363CAE694F8A0312A8B89B202FBAE
:1036AC0003F38B423FF742AF94F8D231002B7FF4F7
:1036BC0042AFA4F8D0313EE74FF0000B012384F861
:1036CC00D231A4F872B101F0DFFE01F0A7FB94F83F
:1036DC006E3184F864B1A4F8A4B184F87CB136E7F7
:1036EC0001F09AFE224BB4F8AE2184F83FB1C3E945
:1036FC000D22DA639AE6012384F8D831FFF7AEF88D
:10370C00B4F87231C82B04D95023A4F886B1A5F8AB
:10371C00A033B5F8A003FEF7A5F8B4F98631002B59
:10372C007FF4AFAC84F86E3184F83F31164942F225
:10373C002833AB650122C4F8403185F8562084F853
:10374C006421D4F840214B62C4F8BC21637F95F806
:10375C00A22385F855201422C4F860211BB1B5F8BA
:10376C009A33A4F87E31FEF7E7FA01F0C9FD88E43C
:10377C00002C01400024014001011000FF04EC4F1B
:10378C0054D9FFFFD34D62100010004001F07CFEB5
:10379C002E4B002584F87C515D6384F8A1519D6308
:1037AC00DD63A4F87251A4F8A45101F0B1FD2848CE
:1037BC004FF48072294602F007FBFEF719F993F8D3
:1037CC00EC30244D2B2B3CD0352B36D01F2B04BF8B
:1037DC00214B2B60FFF7FBBB01F056FE1B4B84F813
:1037EC007CB1C3F834B084F8A1B1C3F838B0C3F8D5
:1037FC003CB0A4F872B1A4F8A4B101F089FD4FF467
:10380C0080725946124802F0DFFAD6E7134AD368A1
:10381C0023F00103D36001F001FB0C4BC3E90DBB9A
:10382C00C3F83CB002F044F884F8D8B1C2E5637830
:10383C00022B3FF6E5ABFFF7D8BB094B2B60FFF72C
:10384C00C6BB084B2B60FFF7C2BB00BF002C01406E
:10385C003407002000000020007C000800440140D8
:10386C0000F8000800F80108F0B5654CD4E9000236
:10387C00101A6FF4487240F2765382189A4283B051
:10388C002BD8604E604D002333802B78002B46D014
:10389C006B780146ABB9AB78002B00F09880A88808
:1038AC005A4F01333988AB70FDF7D6FF322870D9E7
:1038BC0000223B882A706A78AB8052B1D4E900317F
:1038CC00C91A40F2E143994257D9AB794B2B00F21C
:1038DC0081800023A868338004E04B494C4B8868F6
:1038EC0000221A804B494C4A0B8812689BB2C31AAF
:1038FC0093420B8805DD12FA83F292B20A8003B070
:10390C00F0BD9BB21B1A9A4205DA0B889A1A92B236
:10391C000A8003B0F0BD80B2088003B0F0BD3F4A0E
:10392C00947C74B13E4A128890421AD83D494FF4A7
:10393C007A7409880094FDF76DFFA860002333802A
:10394C00D0E7324B1A88374B198840F2FF7300933B
:10395C002F23FDF75FFF3028CEBFA860AC60204658
:10396C00ECE72A4B511C1A884FF4FA63009340F28F
:10397C00E933FDF74FFFA860E0E72A48AB790288EE
:10398C00C2EBC20201331144DBB2C908AB71018036
:10399C009CE73B886268C3EBC3012368D31AAA78FF
:1039AC000B44C3F3CF03322A3B8084D9193B9BB21F
:1039BC003B80A3F2D663194A03EBD3735B1082F8F6
:1039CC00213001236B7000F02FFB3B8873E780B232
:1039DC00A88065E7134A1149138819339BB21380E9
:1039EC00A3F2EE2303EBD3735B10002481F8203099
:1039FC002C70FEF797F9AC7100F046FB69E700BF3D
:103A0C0034070020B0060020080700201200002018
:103A1C00A406002066060020B80300200005002044
:103A2C001400002010000020694B2DE9F041694F73
:103A3C001968002544F6206E1A46A7F804E003F135
:103A4C007804AC462E4652F8043F9942A3EB010091
:103A5C00194606D070453CBF1FFA80FE01268444EF
:103A6C0001259442EFD1002E4ED0A7F804E05A481D
:103A7C005A496DB303784FEA5C15012BCD6009D020
:103A8C00574A1478012C10D013B91478002C3ED05E
:103A9C00BDE8F0810EF1FF33022B70D83B2D75D9A8
:103AAC004F4A1478012CE3B2F2D1AEF1C904A4B29E
:103ABC0044F65656B442E7D8DFF828C14A4E0124E2
:103ACC001470347077248CF800400224BC71DBE74E
:103ADC000378CD60012BD3D10EF1FF33022B55D9D6
:103AEC00AEF10403042BDBD83F4A3D4C0123137089
:103AFC003C4A0370137003233C4A20780B74072054
:103B0C0020231070BB71C3E744F6206EAFE70EF1B3
:103B1C00FF34022C0ED83B2DBAD8324A334C1370DA
:103B2C000123314A0B740E21217020210370B971CD
:103B3C001370ADE7AEF10403042B0FD8632DA7D897
:103B4C00284A2A4C0123137003220A740721264A9F
:103B5C00217020210370B971137099E7AEF1C9037C
:103B6C009BB244F656518B4292D801231D481370D8
:103B7C001D49772202700222BA710B7088E7AEF1F0
:103B8C000403042B8CD8632D8AD8ADE7164E144A47
:103B9C00DFF850C00123337014780B744FF0000819
:103BAC000370124B8CF800804FF00E0883F80080E5
:103BBC00012C4FF02003BB71E3B27FF469AFAEF17F
:103BCC00C904A4B244F6565844457FF678AF5FE773
:103BDC0034070020B8030020C2050020080700208D
:103BEC00C3050020C2030020A1060020C30300204F
:103BFC0070B5534C237813B1524B1B783BB9524BD5
:103C0C001A78002A6FD01B78012B0AD070BD4F4B4D
:103C1C001B78002B54D000F085FF4D4B02221A70FC
:103C2C0070BD484B1B78002B50D14A4D2B78012B83
:103C3C0075D0494B1B78012B68D02378002BE5D12C
:103C4C002B78EBB1454A537C072B19D8444909888A
:103C5C00052915D94348C16F00680133091A506909
:103C6C00DBB210FA81F1082B5374516108D1C1F306
:103C7C00CF033D48C1F3CF115C18591A048111834D
:103C8C003A4C2088002838D0394BDD79002DBDD135
:103C9C00334A40F2DC5398421580B7D92F4E718BC2
:103CAC00FDF7DAFD322848D8337F0133DBB2322BF3
:103CBC00337702D97578002D3BD02388738370BD80
:103CCC0000F06AFF224B01221A7070BD1F4B1B784B
:103CDC007BB1284B1888FDF77FFCFDF72BFABDE86C
:103CEC00704000F01FBFFFF79FFEBDE8704000F072
:103CFC0019BFBDE8704000F04FBF184B1B78002B6C
:103D0C00C2D1174A13880133138070BD00F08EFFA7
:103D1C00154B48B103229A7100F004FF8DE7FDF7B3
:103D2C0009FA00F0FFFE84E702229A71FFF79CFD6E
:103D3C00F2E700F0D9F9012333703577BDE700BF06
:103D4C007C060020C1060020A106002030070020C0
:103D5C0090060020C2050020C305002008070020A3
:103D6C00A406002034070020B803002068060020B9
:103D7C0000050020940600200B28034B28BF0B20C5
:103D8C0000EB400018707047250700202DE9F84F14
:103D9C00424D434EDFF80C81032001F0B3FB2C465F
:103DAC0005F17C094FF0000A4AF6AA2732E0002BF5
:103DBC0054D04FF47A614FF0F70C1CFB031C3A49BA
:103DCC0009238B62394BB3FBFCFE394BB3FBFEF37F
:103DDC009AB2384BCA621B7802FB03F3364A82FB59
:103DEC000323DB0AC1E90D33CB63FF2313FB0A006A
:103DFC00324B0CFB00F0A3FB0030C0F34F30FDF74F
:103E0C003DFD4FF0000A95F83300EF2817D8023427
:103E1C00A14523D094F8340094F83530C8F80070DC
:103E2C00002131800028C2D0FF2826D13BB395F861
:103E3C0033000AF10102EF285FFA82FAE7D91A4B34
:103E4C00C0F1FF00002100EB8000C3E90D11D96324
:103E5C0040000234FDF712FDA145DBD101F014FB4B
:103E6C001748114A00880F4900239362D0624AF622
:103E7C00AA2233800A60BDE8F88F002B99D10A4939
:103E8C004FF0000B4FF0FF0C0CFB0A00C1E90DBB0F
:103E9C00C1F83CB0FDF7F2FCDA46B4E700050020AF
:103EAC00B006002000300040002C014080969800A5
:103EBC00001BB7002507002057EAE0685172A6BE28
:103ECC000400002010B572B6032001F01BFB1A4B46
:103EDC0093F83030FF2B07D0FFF758FF174A184BD9
:103EEC001288DA6262B610BD154C164B41F287325D
:103EFC00E2621B78E363C4E90D33032001F002FB9B
:103F0C003723A362C820FDF7B9FC052001F0FAFAAB
:103F1C002823A362C820FDF7B1FC062001F0F2FAB9
:103F2C001923A362C820FDF7A9FC01F0ADFA064ADB
:103F3C000023A3621380D1E70005002004000020B9
:103F4C00002C014025070020B006002070B5164C4F
:103F5C0041F28733E36272B6144D154B3C224AF69C
:103F6C00AA262E60A2621B78E363C4E90D330120FC
:103F7C0001F0C8FA4B20FDF781FC5023A3624B20C3
:103F8C00FDF77CFC5A23A3624B202E60FDF776FCD8
:103F9C0001F07AFA074A084912880023A3620B80C1
:103FAC00E26262B670BD00BF002C014000300040E0
:103FBC002507002004000020B006002010B572B6C2
:103FCC00144C154A154B4AF6AA2141F28730E0628F
:103FDC0011605022A2621B78E363C4E90D33032005
:103FEC0001F090FA6420FDF749FC4623A36264209B
:103FFC00FDF744FC2823A3626420FDF73FFC01F08D
:10400C0043FA074A074912880023A3620B80E26235
:10401C0062B610BD002C0140003000402507002086
:10402C0004000020B006002010B5124C124B41F2D7
:10403C0087313222E162A2621B78E363C4E90D335B
:10404C00022001F05FFA9620FDF718FC0B4A4AF6A5
:10405C00AA211E2311609620A362FDF70FFC01F02C
:10406C0013FA074A074912880023A3620B80E26205
:10407C0010BD00BF002C014025070020003000407F
:10408C0004000020B006002010B5124C124B41F277
:10409C0087312822E162A2621B78E363C4E90D3305
:1040AC00022001F02FFA9620FDF7E8FB0B4A4AF6A6
:1040BC00AA21502311609620A362FDF7DFFB01F0CB
:1040CC00E3F9074A074912880023A3620B80E262D6
:1040DC0010BD00BF002C014025070020003000401F
:1040EC0004000020B00600202DE9F041154D41F2EE
:1040FC008733EB6272B6144BDFF850801B78144F89
:10410C00EB63C5E90D3377244AF6AA26A7FB0430E6
:10411C000009C8F8006001F0F5F963100A33AB62CE
:10412C000A20023CFDF7AAFB631CEFD101F0ACF9AD
:10413C00084A094912880023AB620B80EA6262B616
:10414C00BDE8F081002C0140250700200030004024
:10415C00CDCCCCCC04000020B0060020002103E024
:10416C000B4B5B58435004310A480B4B42189A4294
:10417C00F6D30A4A02E0002342F8043B084B9A4269
:10418C00F9D301F0F9FB01F0FBFDFEF70DFF7047D1
:10419C002C5E000800000020C8030020C80300208B
:1041AC0054080020FEE70000836861F3000383607D
:1041BC00704700BF4FF080730360704743680A7804
:1041CC0062F30823436083684A7862F34103836097
:1041DC0083688A7862F3CB238360CB78C26A013B15
:1041EC0063F31752C2627047836861F308238360DC
:1041FC00704700BF836843F008038360704700BFBB
:10420C008068C0F3C0007047836843F00403836088
:10421C00704700BF8068C0F38000704710B411294C
:10422C0017D8DFE811F0120079007E0083008800B7
:10423C008D00920097009C00A100A600AB00B0007E
:10424C00B500BA00BF00C4007400046963F3020433
:10425C000461013A0F2A0DD8DFE802F00E13181D85
:10426C0022272C31363B40454A4F5408C36A61F330
:10427C00D333C36210BC7047436B61F304034363D5
:10428C00F8E7436B61F349134363F3E7436B61F363
:10429C008E234363EEE7436B61F3D3334363E9E768
:1042AC00436B61F318534363E4E7436B61F35D6362
:1042BC004363DFE7036B61F304030363DAE7036B28
:1042CC0061F349130363D5E7036B61F38E23036337
:1042DC00D0E7036B61F3D3330363CBE7036B61F379
:1042EC0018530363C6E7036B61F35D630363C1E7B4
:1042FC00C36A61F30403C362BCE7C36A61F3491385
:10430C00C362B7E7C36A61F38E23C362B2E7C468C2
:10431C0063F35754C4609CE7046963F3C5040461F8
:10432C0097E7046963F38814046192E7046963F303
:10433C004B2404618DE7046963F30E34046188E750
:10434C00046963F3D134046183E7046963F394442F
:10435C0004617EE7046963F35754046179E70469E7
:10436C0063F31A64046174E7046963F3DD64046144
:10437C006FE7C46863F30204C4606AE7C46863F35C
:10438C00C504C46065E7C46863F38814C46060E75F
:10439C00C46863F34B24C4605BE7C46863F30E34F6
:1043AC00C46056E7C46863F3D134C46051E7C46891
:1043BC0063F39444C4604CE7836807298CBF43F0D3
:1043CC0000736FF359638360836861F353438360B5
:1043DC00836862F314538360704700BF024B9A6882
:1043EC0060F3D7529A60704700240140836861F3F0
:1043FC0096538360704700BF20B9034BDA6961F3B1
:10440C000002DA61704700BF0000014010B412498D
:10441C000B6843F001030B600B689B07FCD54B68E2
:10442C000D4A6FF301034B60536813F00C0FC3F389
:10443C008101F9D1136823F0867323F48033136060
:10444C0041F610744FF480104FF41F035160D46286
:10445C00106310BC9360704700100240030C03F112
:10446C00804303F5043300F01F001A68012303FA9C
:10447C0000F030EA02030CBF01200020704700BF9F
:10448C00030C03F1804303F5043301291A6800F08F
:10449C001F0006D0012101FA00F022EA000018608A
:1044AC00704701FA00F0104318607047030C03F1D9
:1044BC00804303F5043301291A6800F01F0006D06D
:1044CC00012101FA00F022EA00001860704701FA9D
:1044DC0000F0104318607047042809D8DFE800F09A
:1044EC00090F151B03000F4B5A6A61F300025A6245
:1044FC0070470C4B1A6861F300021A607047094B45
:10450C001A6861F310421A607047064B1A6861F31F
:10451C0018621A607047034B1A6A61F300021A6240
:10452C00704700BF00100240024B5A6860F307123C
:10453C005A60704700100240024B5A6860F30A221E
:10454C005A60704700100240024B5A6860F3CD224B
:10455C005A60704700100240054B5A6860F38F3266
:10456C005A605A68C0F3800060F31C725A6070473E
:10457C0000100240134BA0B95A6860F310428446F5
:10458C005A60104B5A6861F395425A605A68C1F3ED
:10459C00011060F35E725A60DA6A6CF31A62DA62C6
:1045AC0070475A6842F480325A605A6801280BBF2F
:1045BC006FF3514242F400324FF0020C4FF0000CFA
:1045CC005A60DEE700100240024B5A6860F30102A9
:1045DC005A60704700100240024B5868C0F38100CB
:1045EC00704700BF00100240012805D0054B5A6DE2
:1045FC006FF305125A657047024A536D43F030034E
:10460C00536570470010024010B404680C49002236
:10461C00C3B26FF300040460083B02604260826026
:10462C00C260A2F13332A2FB03231B09486810BC01
:10463C009B000F2202FA03F303434B60704700BF49
:10464C0000000240036861F300030360704700BF81
:10465C00034B1B68034214BF01200020704700BFAE
:10466C00000002400023C0E90033C0E9023303829A
:10467C00704700BF03684BF6EF721340036002688B
:10468C000B891343036003684A7C62F30D330360A8
:10469C000368CA7B62F38B23036003688A7B62F333
:1046AC000923036003684A7B62F3C7130360036842
:1046BC000A7B62F3861303600A7C036862F345137A
:1046CC000360D1E9002310B44C894460826010BCB3
:1046DC00C3607047014BD860704700BF0020024098
:1046EC00024B0349034A59605A607047002002404C
:1046FC0023016745AB89EFCD024A136943F0800370
:10470C0013617047002002401B4A136943F00203F7
:10471C0013615061136943F040031361D368D907E7
:10472C0004D4D3685B0720D5012011E04FF08043FF
:10473C00D168C80712D4D168490713D4D268D206FD
:10474C0003F1FF334CBF02200320002B08BF0420D1
:10475C00094B1A696FF341021A617047013BE7D1AB
:10476C000420F5E7013B0120EFE7D36813F0100FAD
:10477C0014BF02200320EBE700200240194A136902
:10478C0043F0010313610160D368D90704D4D368E3
:10479C005B0720D5012011E04FF48013D168C807C6
:1047AC0012D4D168490713D4D268D20603F1FF336F
:1047BC004CBF02200320002B08BF0420094B1A69B0
:1047CC006FF300021A617047013BE7D10420F5E753
:1047DC00013B0120EFE7D36813F0100F14BF022048
:1047EC000320EBE70020024001F007039B00C908FF
:1047FC0002FA03F20BD0416A4FF00F0C0CFA03F3E0
:10480C0021EA03034362436A1A4342627047016A16
:10481C004FF00F0C0CFA03F321EA03030362036A53
:10482C001A430262704700BF08B52E4B98421CD049
:10483C002D4B984223D02D4B98422AD02C4B98428A
:10484C0009D02C4B98422ED02B4B984235D02B4B69
:10485C0098423CD008BD2A480121FFF727FEBDE84D
:10486C00084027480021FFF721BE26480121FFF709
:10487C001DFEBDE8084023480021FFF717BE224863
:10488C000121FFF713FEBDE808401F480021FFF788
:10489C000DBE1E480121FFF709FEBDE808401B486C
:1048AC000021FFF703BE1A480121FFF7FFFDBDE809
:1048BC00084017480021FFF7F9BD16480121FFF702
:1048CC00F5FDBDE8084013480021FFF7EFBD124885
:1048DC000121FFF7EBFDBDE808400F480021FFF771
:1048EC00E5BD00BF002C014000040040001000405A
:1048FC0000200040004001400044014000480140BD
:10490C00080010000B000C00010010000400100047
:10491C0010000C0011000C0012000C00036861F375
:10492C00C7130360704700BF062909D8DFE801F000
:10493C0013080E0809080400C36962F3CB23C36192
:10494C007047C36962F3C303C3617047836962F341
:10495C00CB2383617047836962F3C3038361704720
:10496C00062909D8DFE801F0090E13181D220400EE
:10497C00036A62F30C3303627047036A62F3000349
:10498C0003627047036A62F3820303627047036A2F
:10499C0062F3041303627047036A62F386130362C3
:1049AC007047036A62F3082303627047036A62F379
:1049BC008A230362704700BF064B0748B3F806C052
:1049CC000649074AA0F800C018885B880880138045
:1049DC00704700BF28070020C4060020CA0600202C
:1049EC003806002030B5402387B0002203214FF059
:1049FC009040FCF7BFFF4023002203214FF0904072
:104A0C00FCF7B8FF01214FF4A010FFF739FD334834
:104A1C00334CFFF7F9FD01A8FFF724FE314B324A66
:104A2C002E48019301A940F201234FF480250492F2
:104A3C00ADF81430CDE90245FFF71CFE27480121E3
:104A4C00FFF700FE01212948FFF71AFD0720FFF7A9
:104A5C0083FD6846FFF7AEFB254B2648009369465D
:104A6C00FFF7ACFB2348032301220621FFF7D6FBFB
:104A7C002048032302220621FFF7D0FB03231A460A
:104A8C001C481121FFF7CAFB0723042210211948E7
:104A9C00FFF7C4FB0120FFF7A1FC012215480721F9
:104AAC00FFF78AFC13480121FFF79EFB11480121F7
:104ABC00FFF77AFB0F48FFF79DFB0E48FFF7A0FBB3
:104ACC000028FAD10B480B4CFFF79EFB2046FFF752
:104ADC00A1FB0028FAD107B030BD00BF080002408E
:104AEC00280700204C240140000101010900180096
:104AFC00010100040024014048F2E80303FB00F02C
:104B0C000028B8BF00F6FF70054B0013C0F54850E5
:104B1C0083FB0023C017A0EBE300193000B27047F1
:104B2C00310CC33038B5164D164C6B6C6B6420468B
:104B3C00FFF77AFE144B41210B22A16122621A78F5
:104B4C00A2624FF6FF73E3626269104B002142F0E0
:104B5C000102626103F8041B0D4A6162EA640D4AAA
:104B6C002B651378AB64E36843F40073E36023684C
:104B7C0043F0010340F68B1223606A6438BD00BF1A
:104B8C000000024000040040C20300203007002057
:104B9C0034040040BE03002038B51D4D1D4C6B6C19
:104BAC0043F010036B642046FFF73EFE60210323A5
:104BBC00194AA16123621278184BA2624C2101227E
:104BCC00E1621A7063691649164A43F00103636186
:104BDC00154BE9642A655B781733AB646B6C43F057
:104BEC0002036B646B6C43F008036B646B6C43F0F7
:104BFC0001036B64E36843F40073E360636C43F498
:104C0C0000436364236843F00103236038BD00BF95
:104C1C00000002400004004018070020300700206C
:104C2C003404004034040020C2030020024B1869F5
:104C3C0000F01000704700BF000400480248102329
:104C4C0001220221FCF7A2BE00040048FEE700BFCF
:104C5C00FEE700BFFEE700BFFEE700BF704700BFE6
:104C6C00704700BF704700BF704700BF10B50220EF
:104C7C00FFF7EEFC012800D010BD054C6060FFF77B
:104C8C009BFE0820FFF7E4FC012808BF606010BD04
:104C9C000000024008B5264B1B78002B39D14FF48D
:104CAC008040FFF7D5FC012811D04FF40050FFF7DE
:104CBC00CFFC01281ED04FF40040FFF7C9FC01289F
:104CCC0000D008BD1B4B4FF480525A6008BD1A4BE4
:104CDC001B78002BE9D0194A1649136A4FF480400F
:104CEC0043F00203136248604FF40050FFF7B0FC2E
:104CFC000128E0D10F4B4FF480525A605A6C6FF37D
:104D0C0000025A64FEF774FF0D4B4FF400421A6117
:104D1C00D1E7084B4FF480525A605A6C6FF3000283
:104D2C005A64FEF765FF064B4FF400421A6108BD4A
:104D3C00C205002000000240C30500200004004012
:104D4C000004014008B50D4A0D4B5B6A1268B3EBC9
:104D5C00520F07D90B4B4FF400125A61BDE80840B3
:104D6C00FDF78AB800F052F8074B1B78984200D038
:104D7C0008BD044B4FF400125A6108BD40060020D8
:104D8C00001000400004014052000020024B4FF67E
:104D9C00FE721A61FDF764BE00200040024B002237
:104DAC001A61FDF721B800BF00440140034B4FF6D8
:104DBC00FE714FF6FD7219611A6170470040014097
:104DCC00704700BF074B1A69910744BF4FF6FD723D
:104DDC001A61044B1A69D20744BF4FF6FE721A616E
:104DEC00704700BF00040040064A074913680133AE
:104DFC0013604B691B0400D470474FF400434B61A4
:104E0C00FDF70EBD3408002000040140024BD869A8
:104E1C00C0F38070704700BF00000140044B1A685B
:104E2C004FF4001122F400121A605961704700BF50
:104E3C0000040140024A136843F4001313607047E6
:104E4C00000401400F4B1A68B2F5C87F04D20E491A
:104E5C00CA6922F00402CA611B68B3F5167F04D933
:104E6C00094AD36943F00403D361084B084A197803
:104E7C0000290CBF4FF40011002191601B785B05D9
:104E8C00D360704740060020000001405200002013
:104E9C00000401402DE9F0430029B4BFCE1C0E469E
:104EAC0026F00303073383B023F0070300AFADEB09
:104EBC00030DB6106D4688468146144600213246D5
:104ECC00284600F081FFB8F1030F17DD4846291F73
:104EDC000022837890F8038090F800E090F801C0ED
:104EEC001B0443EA086343EA0E03013243EA0C2332
:104EFC00964241F8043F00F10400EADC3E60FFF703
:104F0C00EFFBC4F30903EBB100237B607B683A68C9
:104F1C009A4211D978687B6804EB800055F823100D
:104F2C00FFF72CFC0320FFF7D5FB7B6801337B607C
:104F3C007A683B689A42EDD3FFF7DEFB0C37BD462F
:104F4C00BDE8F0832046FFF7DFFBDDE7002A30DD0C
:104F5C00531E072B10B501F1010421D9031B022BA1
:104F6C001ED922F0030E8E440B46441AD3F800C00F
:104F7C0044F803C004337345F8D1940722F00303BB
:104F8C000DD0CC5CC4545C1CA24208DD023311F879
:104F9C0004C000F804C09A4201DDCA5CC25410BDC2
:104FAC00431E1A44201AC15C03F8011F9342FAD124
:104FBC0010BD704762B670471C4B40F2531210B5CF
:104FCC001A60FFF723FA01210020FFF785FA012070
:104FDC00FFF744FA01280446F9D100201D21FFF700
:104FEC00C9FA21460220FFF777FA1920FFF736FAA3
:104FFC0001280446F9D10020FFF796FA0020FFF7AC
:10500C00A3FA0020FFF798FA2046FFF7EDFA0220EA
:10501C00FFF7DAFAFFF7E0FA0228FBD10020FFF7DE
:10502C00E3FABDE8104000F0D7BC00BF00200240FE
:10503C00084B10B44CF6CC4245F255541C6003207E
:10504C001A604FF47A614AF6AA22586010BC996033
:10505C001A6070470030004038B53F483F4C012182
:10506C00FFF70EFA0025682341F2873146F66802F5
:10507C00E1622046A5622946A261E3610122FFF7A5
:10508C0053FC204601220221FFF74EFC0122204650
:10509C000421FFF749FC20460121FFF73FFC636C1C
:1050AC002F48322262F3070363640121FFF7E8F90A
:1050BC002C4C2D480121FFF7E3F9022319462A460F
:1050CC002046FCF757FC2A46204601230221FCF718
:1050DC0051FC80232A4602214FF09040FCF74AFCF9
:1050EC00204602220121FFF77FFB2946204602229F
:1050FC00FFF77AFB022207214FF09040FFF774FB79
:10510C002A464FF4806302214FF09040FCF732FCAA
:10511C002A464FF4007302214FF09040FCF72AFC12
:10512C004FF480732A4602214FF09040FCF722FC8A
:10513C0002220A214FF09040FFF756FB0222092170
:10514C004FF09040FFF750FBBDE838400222082199
:10515C004FF09040FFF748BB0B001800002C0140AB
:10516C001100140000040048120014002DE9F0474F
:10517C004C4CFFF721FF102501214FF4A010FFF735
:10518C007FF984F80B534FF40068C4F80080FFF7E4
:10519C0063FF45480121FFF773F9444B44484FF630
:1051AC00FF774FF03B09DF620121C3F82890FFF72E
:1051BC0067F9404B32224FF0770ADA62C3F828A025
:1051CC00302384F813334FF4002323603A48012131
:1051DC00FFF756F901214FF4C010FFF751F90026E3
:1051EC000223002203214FF09040FCF7C3FB202345
:1051FC00324603214FF09040FCF7BCFB84F80C6363
:10520C004FF48053236001213046FFF7F5F82B480B
:10521C000121FFF735F92A4B2A48DF62C3F828A091
:10522C001A6842F080021A600121FFF729F9264B17
:10523C004FF4FA72DA62C3F8289084F815634FF4CD
:10524C0000132360DFF8849021480121FFF718F93F
:10525C0020480121FFF714F92B463246484602211B
:10526C00FCF788FB484601220421FFF7BDFA012117
:10527C004FF4A010FFF704F9174B40F68A125A644A
:10528C0084F80B53C4F80080A3F5FE33DF629D62F3
:10529C001A6842F080021A601A6842F001021A6021
:1052AC00BDE8F08700E100E004001C0000100040A5
:1052BC0008001C000020004011001400120018000F
:1052CC00004801401100180000440140000400484F
:1052DC001200140001001C0000000240014B586336
:1052EC00704700BF002C0140014B9863704700BF12
:1052FC00002C0140014BD863704700BF002C0140CB
:10530C00024A536943F0010353617047002C01407A
:10531C00024B0022DA625A62704700BF0004004060
:10532C0010B5384C012220460021FFF719FB20460E
:10533C0001220221FFF714FB204601220421FFF772
:10534C000FFB012211462046FFF70AFB20460122E3
:10535C000321FFF705FB204601220521FFF700FB87
:10536C002268294B294842F001022260626C42F407
:10537C0000426264626942F0010262611968244A67
:10538C0041F001011960596941F001015961D96875
:10539C0021F00101D960016841F00101016011683F
:1053AC0041F0010111605169A3F5923341F0010103
:1053BC0051611A6842F001021A605A6942F0010206
:1053CC005A61DA6842F00102A4F59434DA60FFF70E
:1053DC0009FB012200212046FFF7C2FA23680D4A7F
:1053EC0043F001032021236082F80713802313600C
:1053FC0002F1C04202F50C52136843F400431360EF
:10540C0010BD00BF002C0140004401400048014089
:10541C000010004000E100E070B54FF090442046D1
:10542C004FF4806300220121FCF7A4FA4FF4806052
:10543C00A0624FF40073204600220121FCF79AFA77
:10544C004FF400700F4DA0624FF480732046002281
:10545C000121FCF78FFA02234FF480701946A062E9
:10546C0000222846FCF786FA284601230022022156
:10547C00FCF780FA20468023BDE870400022022110
:10548C00FCF778BA0004004870B51D4E02230022C8
:10549C00012130464FF09044FCF76CFA02204FF497
:1054AC00806300220121B0622046FCF763FA0123DD
:1054BC004FF480601D4619460022A0623046FCF76E
:1054CC0059FA4FF40073002229462046B562FCF7C6
:1054DC0051FA4FF4007180230022A1622046294624
:1054EC00FCF748FA8023A36200224FF4807329460C
:1054FC002046FCF73FFA4FF48073A36270BD00BFE7
:10550C00000400480138F8B5052845D8DFE810F04C
:10551C0045008400F900C3002E010600BF4E012394
:10552C001D464FF09044194600223046FCF722FAF3
:10553C004FF40073002229462046B562FCF71AFA94
:10554C004FF400728023A262294600222046FCF709
:10555C0011FA8023A36100224FF480732946204660
:10556C00FCF708FAAE4A127D4FF48073A362022353
:10557C00002A40F02F8129463046FCF7FBF9022324
:10558C00B3624FF48063002202214FF09040FCF78D
:10559C00F1F9A44BA44ADA61F8BD4FF09044802392
:1055AC00002201212046FCF7E5F980209B4DA062EA
:1055BC004FF48073002201212046FCF7DBF9012314
:1055CC004FF4807019460022A06201262846FCF791
:1055DC00D1F94FF400730022AE6131462046FCF73E
:1055EC00C9F98F4A127D4FF40073A3620223002A7B
:1055FC0040F0FC8031462846FCF7BCF90223AB6234
:10560C004FF48063002202214FF09040FCF7B2F976
:10561C00844B864ADA61F8BD804D4FF090440223EA
:10562C000022012128460227FCF7A4F94FF48063DD
:10563C00002201212046AF62FCF79CF901234FF4B4
:10564C0080621946A262284600220126FCF792F9D4
:10565C004FF400730022AE6131462046FCF78AF904
:10566C006F4A127D4FF40073A3628023002A40F02E
:10567C00C98031462046FCF77DF98023A3624FF4A4
:10568C008073002202214FF09040FCF773F9654BB8
:10569C00674ADA61F8BD4FF0904480230022012163
:1056AC002046FCF767F980205C4DA0624FF48073B4
:1056BC00002201212046FCF75DF94FF48071022392
:1056CC000022A162284601210226FCF753F94FF46F
:1056DC0080630022AE6101212046FCF74BF9504A51
:1056EC00127D4FF48063A3620123002A40F0848072
:1056FC0019462846FCF73EF90123AB624FF40073C0
:10570C0080E7464E01231D464FF090441946002277
:10571C003046FCF72FF94FF400730022294620463F
:10572C00B562FCF727F94FF400720223A2622946F6
:10573C00002230460227FCF71DF94FF4806300224B
:10574C00B76129462046FCF715F9354A127D4FF40E
:10575C008063A3628023002A5AD129462046FCF795
:10576C0009F98023A3624FF480730CE72B4D4FF0A3
:10577C00904402230022012128460226FCF7FAF865
:10578C004FF48063002201212046AE62FCF7F2F850
:10579C004FF480628023A262012100222046FCF794
:1057AC00E9F88023A36100224FF480730121204685
:1057BC00FCF7E0F81A4A127D4FF48073A3620123C0
:1057CC0072B919462846FCF7D5F80123AB624FF4A1
:1057DC00007356E7002219463046FCF7CBF8D0E6AA
:1057EC00002231462846FCF7C5F8F0E7002219469E
:1057FC002846FCF7BFF803E7002231462846FCF7A1
:10580C00B9F87BE7002239462046FCF7B3F836E7B7
:10581C00002239462046FCF7ADF8A4E70004004806
:10582C000005002000000140C5000040D5000040EC
:10583C00E500004070B51D4E0223002201213046C8
:10584C004FF09044FCF796F802204FF4806300224E
:10585C000121B0612046FCF78DF801234FF48060E4
:10586C001D4619460022A0623046FCF783F84FF41F
:10587C000073002229462046B561FCF77BF84FF4F3
:10588C00007180230022A16220462946FCF772F8A1
:10589C008023A36100224FF4807329462046FCF735
:1058AC0069F84FF48073A36270BD00BF0004004818
:1058BC0070B5284C227DBABB274D02230121284606
:1058CC00FCF758F80223AB6200224FF480630221EC
:1058DC004FF09040FCF74EF8227D9ABB1E4D0123F1
:1058EC0019462846FCF746F80123AB624FF40073C7
:1058FC00002202214FF09040FCF73CF8227D8023DF
:10590C00CAB901214FF09040FCF734F84FF09043A6
:10591C0080229A62BDE870404FF48073002202210D
:10592C004FF09040FCF726B802230B480022194692
:10593C00FCF720F8C8E7002202214FF09040FCF75A
:10594C0019F8E7E70448012300220221FCF712F8BA
:10595C00CCE700BF0005002000040048054BDA69C5
:10596C006FF30002DA611862DA6942F00102DA615F
:10597C00704700BF0000024030B414490B6843F07C
:10598C0001030B600B689B07FCD54B680F4A6FF348
:10599C0001034B60536813F00C0FC3F38101F9D171
:1059AC0013680B480B4C23F0867323F4803313607D
:1059BC0041F610754FF480135160D56213634FF4A8
:1059CC001F039360846030BC704700BF001002401E
:1059DC0000ED00E00010000810B5FEF7FDFD60B111
:1059EC00022816D02C482D4B2D495B682D4AC3F349
:1059FC000313CB5CD840106010BD284B5A6D920538
:105A0C00F0D51A6B244B284812F0007F08BF1846BB
:105A1C00E9E7224B5968DA6A002AC1F300411CDA23
:105A2C00D86ADC6ADA6AC0F3031EC4F3082402F0F5
:105A3C00070259B35B681D4813F4003F164B4FF037
:105A4C00000108BF18460EFA02F20023A4FB000E58
:105A5C0004FB01F1FBF734FBC5E758685B6813F0F6
:105A6C00C04FC0F38340C3F341720BD10F2809D050
:105A7C00023019B1094B5B689B0309D50B4B03FB37
:105A8C0000F0B0E7013000EB0210F2E70748DAE76C
:105A9C00014B03FB00F0A6E700127A000010024055
:105AAC000C5E0008C4030020006CDC0200093D0001
:105ABC002DE9F047089E0D4604468846002B4DD133
:105ACC008A42944668D9B2FA82F252B101FA02F3D0
:105ADC00C2F1200120FA01F10CFA02FC41EA0308A0
:105AEC0094404FEA1C45210CB8FBF5FE1FFA8CF7CD
:105AFC0005FB1E8341EA03430EFB07F199420BD9C8
:105B0C001CEB03030EF1FF3080F01E81994240F232
:105B1C001B81AEF1020E63445B1AA4B2B3FBF5F029
:105B2C0005FB103344EA034400FB07F7A7420AD9EC
:105B3C001CEB040400F1FF3380F00881A74240F213
:105B4C00058164440238E41B40EA0E4000211EB17A
:105B5C00D4400023C6E90043BDE8F0878B4208D946
:105B6C00002E00F0EE800021C6E900050846BDE8D5
:105B7C00F087B3FA83F100294AD1AB4202D38242B7
:105B8C0000F2F980841A65EB030301209846002E7D
:105B9C00E2D0C6E90048DFE702B9FFDEB2FA82F2D2
:105BAC00002A40F09180A1EB0C054FEA1C471FFA2C
:105BBC008CFE0121B5FBF7F307FB1350250C45EACE
:105BCC0000450EFB03F0A84208D91CEB050503F1B8
:105BDC00FF3802D2A84200F2CB8043462D1AA4B261
:105BEC00B5FBF7F007FB105544EA05440EFB00FE2D
:105BFC00A64508D91CEB040400F1FF3502D2A645DA
:105C0C0000F2BB802846A4EB0E0440EA03409EE75A
:105C1C00C1F120078B4022FA07FC4CEA030C20FA56
:105C2C0007F405FA01F31C43FD404FEA1C4900FA46
:105C3C0001F3B5FBF9F8200C1FFA8CFE09FB185583
:105C4C0040EA054508FB0EF0A84202FA01F20BD916
:105C5C001CEB050508F1FF3A80F08880A84240F261
:105C6C008580A8F1020865442D1AA4B2B5FBF9F0A1
:105C7C0009FB105544EA054500FB0EFEAE4508D95C
:105C8C001CEB050500F1FF346CD2AE456AD9023825
:105C9C00654440EA0840A0FB0294A5EB0E05A54222
:105CAC00C846A64656D353D05EB1B3EB080265EB9B
:105CBC000E0505FA07F722FA01F3CD401F43C6E99A
:105CCC0000750021BDE8F087C2F1200320FA03F132
:105CDC000CFA02FC25FA03F395400D434FEA1C47DE
:105CEC001FFA8CFEB3FBF7F107FB11302B0C43EAC8
:105CFC00004301FB0EF0984204FA02F408D91CEBA5
:105D0C00030301F1FF382FD298422DD90239634495
:105D1C001B1AADB2B3FBF7F007FB103345EA034592
:105D2C0000FB0EF3AB4208D91CEB050500F1FF3864
:105D3C0016D2AB4214D902386544ED1A40EA01413F
:105D4C0038E73146304607E78646E5E61846FAE678
:105D5C004B45A9D2B9EB020864EB0C0E0138A3E752
:105D6C004046EAE7204694E74146D1E7D0467BE738
:105D7C00023B654432E7084609E76444023842E7CF
:105D8C0070B50D4D0D4C641BA4100026A64209D114
:105D9C000B4D0C4C00F020F8641BA4100026A642FE
:105DAC0005D170BD55F8043B98470136EEE755F820
:105DBC00043B98470136F2E7245E0008245E000895
:105DCC00245E0008285E000802440346934200D17A
:105DDC00704703F8011BF9E7F8B500BFF8BC08BC25
:105DEC009E467047F8B500BFF8BC08BC9E4670478D
:105DFC00191B12131D1516171A090A0B1E0D0E0F5F
:105E0C00000000000000000001020304060708095E
:085E1C00A0FCFF7F0100000063
:045E2400251100083C
:045E2800011100085C
:105E2C00007C00088713871332007800C800D00765
:105E3C004C046C07DC0564004A0132009001000040
:105E4C00000000009001000000000000E8030000CA
:105E5C000000000000000000000000000000000036
:105E6C00204E0000A086010002061001140046001E
:105E7C00DC05010501010100D430000005010A0018
:105E8C00E803000010270000000000000A000000DA
:105E9C000000000064000000000000000000000092
:105EAC0000000000000000001027000050C300009C
:105EBC00B400D007D0070000B400B700BA00BD0092
:105ECC00C100C400C700CA00CD00D000D300D6006A
:105EDC00D900DC00E000E300E600E900EC00EF0094
:105EEC00F200F500F700FA00FD00000103010601C5
:105EFC0009010B010E0111011301160119011B01FE
:105F0C001E0120012301250128012A012C012F014A
:105F1C0031013301350138013A013C013E014001A8
:105F2C00420144014601470149014B014D014E011B
:105F3C0050015101530154015601570158015A01A6
:105F4C005B015C015D015E015F0160016101620149
:105F5C006301630164016501650166016601670106
:105F6C0067016701680168016801680168016801DF
:105F7C0068016801680167016701670166016601D4
:105F8C0065016501640163016301620161016001E6
:105F9C005F015E015D015C015B015A015801570113
:105FAC00560154015301510150014E014D014B0159
:105FBC004901470146014401420140013E013C01B7
:105FCC003A0138013501330131012F012C012A012D
:105FDC0028012501230120011E011B0119011601B5
:105FEC00130111010E010B0109010601030100014E
:105FFC00FD00FA00F700F500F200EF00EC00E900FC
:10600C00E600E300E000DC00D900D600D300D000AD
:10601C00CD00CA00C700C400C100BD00BA00B70063
:10602C00B400B100AE00AB00A700A400A1009E001C
:10603C009B009800950092008F008C0088008500D2
:10604C0082007F007C0079007600730071006E0086
:10605C006B006800650062005F005D005A0057002D
:10606C00550052004F004D004A00480045004300C7
:10607C0040003E003C003900370035003300300052
:10608C002E002C002A0028002600240022002100CB
:10609C001F001D001B001A0018001700150014002B
:1060AC001200110010000E000D000C000B000A0075
:1060BC0009000800070006000500050004000300A5
:1060CC0003000200020001000100010000000000BA
:1060DC0000000000000000000000000000000100B3
:1060EC00010001000200020003000300040005008F
:1060FC00050006000700080009000A000B000C0050
:10610C000D000E00100011001200140015001700F5
:10611C0018001A001B001D001F0021002200240083
:10612C00260028002A002C002E00300033003500F9
:10613C00370039003C003E00400043004500480059
:10614C004A004D004F005200550057005A005D00A8
:10615C005F006200650068006B006E0071007300E8
:10616C00760079007C007F008200850088008C001E
:10617C008F009200950098009B009E00A100A40047
:10618C00A700AB00AE00B10032001E03030064197F
:10619C0000000000010000000000000032000000C0
:1061AC0000000000000000000000000000000000E3
:1061BC001027000050C30000020032006E00D00710
:1061CC0064000500E8030614013278004B0001005E
:1061DC005A005A001E000201FA000000204E200056
:0861EC0050C3110700127A00F4
:107BE0004649534850565F3135415F463432310083
:107BF0000000000000000000000000000000000085
:040000050800416945
:00000001FF
